{
  "contractName": "Message",
  "abi": [
    {
      "constant": true,
      "inputs": [],
      "name": "message",
      "outputs": [
        {
          "name": "",
          "type": "bytes32"
        }
      ],
      "payable": false,
      "stateMutability": "view",
      "type": "function"
    },
    {
      "constant": false,
      "inputs": [
        {
          "name": "newMessage",
          "type": "bytes32"
        }
      ],
      "name": "setMessage",
      "outputs": [],
      "payable": false,
      "stateMutability": "nonpayable",
      "type": "function"
    },
    {
      "constant": true,
      "inputs": [],
      "name": "getMessage",
      "outputs": [
        {
          "name": "",
          "type": "bytes32"
        }
      ],
      "payable": false,
      "stateMutability": "view",
      "type": "function"
    }
  ],
  "bytecode": "0x608060405234801561001057600080fd5b5061013c806100206000396000f300608060405260043610610057576000357c0100000000000000000000000000000000000000000000000000000000900463ffffffff168063b32fead51461005c578063ce6d41de1461008d578063e21f37ce146100c0575b600080fd5b34801561006857600080fd5b5061008b60048036038101908080356000191690602001909291905050506100f3565b005b34801561009957600080fd5b506100a2610101565b60405180826000191660001916815260200191505060405180910390f35b3480156100cc57600080fd5b506100d561010a565b60405180826000191660001916815260200191505060405180910390f35b806000816000191690555050565b60008054905090565b600054815600a165627a7a72305820e5bb4b449ec321e7c84ce19529cf0c01e0028de1155ca0e8c5b2ab068c9501c30029",
  "source": "pragma solidity ^0.4.23;\ncontract Message {\n    bytes32 public message;\n    function setMessage(bytes32 newMessage) public {\n        message = newMessage;\n    }\n\n    function getMessage() public view returns(bytes32){\n        return message;\n    }\n}",
  "sourcePath": "/Users/ogoombonu/code/blockchain/truffle/contracts/message.sol",
  "compiler": {
    "name": "solc",
    "version": "0.4.24+commit.e67f0147.Emscripten.clang"
  },
  "schemaVersion": "2.0.0",
  "updatedAt": "2018-06-26T10:18:56.915Z"
}