{
  "contractName": "Inbox",
  "abi": [
    {
      "constant": true,
      "inputs": [],
      "name": "message",
      "outputs": [
        {
          "name": "",
          "type": "string"
        }
      ],
      "payable": false,
      "stateMutability": "view",
      "type": "function"
    },
    {
      "inputs": [
        {
          "name": "initialMessage",
          "type": "string"
        }
      ],
      "payable": false,
      "stateMutability": "nonpayable",
      "type": "constructor"
    },
    {
      "constant": false,
      "inputs": [
        {
          "name": "receiver",
          "type": "address"
        },
        {
          "name": "amount",
          "type": "uint256"
        }
      ],
      "name": "sendCoin",
      "outputs": [
        {
          "name": "sufficient",
          "type": "bool"
        }
      ],
      "payable": false,
      "stateMutability": "nonpayable",
      "type": "function"
    },
    {
      "constant": false,
      "inputs": [
        {
          "name": "newMessage",
          "type": "string"
        }
      ],
      "name": "setMessage",
      "outputs": [],
      "payable": false,
      "stateMutability": "nonpayable",
      "type": "function"
    },
    {
      "constant": true,
      "inputs": [],
      "name": "getMessage",
      "outputs": [
        {
          "name": "",
          "type": "string"
        }
      ],
      "payable": false,
      "stateMutability": "view",
      "type": "function"
    }
  ],
  "bytecode": "0x608060405234801561001057600080fd5b50604051610590380380610590833981018060405281019080805182019291905050508060009080519060200190610049929190610050565b50506100f5565b828054600181600116156101000203166002900490600052602060002090601f016020900481019282601f1061009157805160ff19168380011785556100bf565b828001600101855582156100bf579182015b828111156100be5782518255916020019190600101906100a3565b5b5090506100cc91906100d0565b5090565b6100f291905b808211156100ee5760008160009055506001016100d6565b5090565b90565b61048c806101046000396000f300608060405260043610610062576000357c0100000000000000000000000000000000000000000000000000000000900463ffffffff168063368b87721461006757806390b98a11146100d0578063ce6d41de14610135578063e21f37ce146101c5575b600080fd5b34801561007357600080fd5b506100ce600480360381019080803590602001908201803590602001908080601f0160208091040260200160405190810160405280939291908181526020018383808284378201915050505050509192919290505050610255565b005b3480156100dc57600080fd5b5061011b600480360381019080803573ffffffffffffffffffffffffffffffffffffffff1690602001909291908035906020019092919050505061026f565b604051808215151515815260200191505060405180910390f35b34801561014157600080fd5b5061014a61027b565b6040518080602001828103825283818151815260200191508051906020019080838360005b8381101561018a57808201518184015260208101905061016f565b50505050905090810190601f1680156101b75780820380516001836020036101000a031916815260200191505b509250505060405180910390f35b3480156101d157600080fd5b506101da61031d565b6040518080602001828103825283818151815260200191508051906020019080838360005b8381101561021a5780820151818401526020810190506101ff565b50505050905090810190601f1680156102475780820380516001836020036101000a031916815260200191505b509250505060405180910390f35b806000908051906020019061026b9291906103bb565b5050565b60006001905092915050565b606060008054600181600116156101000203166002900480601f0160208091040260200160405190810160405280929190818152602001828054600181600116156101000203166002900480156103135780601f106102e857610100808354040283529160200191610313565b820191906000526020600020905b8154815290600101906020018083116102f657829003601f168201915b5050505050905090565b60008054600181600116156101000203166002900480601f0160208091040260200160405190810160405280929190818152602001828054600181600116156101000203166002900480156103b35780601f10610388576101008083540402835291602001916103b3565b820191906000526020600020905b81548152906001019060200180831161039657829003601f168201915b505050505081565b828054600181600116156101000203166002900490600052602060002090601f016020900481019282601f106103fc57805160ff191683800117855561042a565b8280016001018555821561042a579182015b8281111561042957825182559160200191906001019061040e565b5b509050610437919061043b565b5090565b61045d91905b80821115610459576000816000905550600101610441565b5090565b905600a165627a7a7230582037b2f052d45a48525b5ba460274ce3656683a17e55b09027c30db8df69d722380029",
  "source": "pragma solidity ^0.4.18;\n\nimport \"./ConvertLib.sol\";\n\ncontract Inbox {\n    \n    string public message;\n\n    function sendCoin(address receiver, uint amount) public returns(bool sufficient) {\n        \n        return true;\n    }\n    function Inbox(string initialMessage) public {\n        message = initialMessage;\n    }\n    function setMessage(string newMessage) public {\n        message = newMessage;\n    }\n\n    function getMessage() public view returns (string){\n        return message;\n    }\n\n    \n}\n",
  "sourcePath": "/Users/ogoombonu/code/blockchain/MetaCoin/contracts/helloworld.sol",
  "compiler": {
    "name": "solc",
    "version": "0.4.24+commit.e67f0147.Emscripten.clang"
  },
  "schemaVersion": "2.0.0",
  "updatedAt": "2018-06-14T11:02:31.242Z"
}